{
  "contractName": "Berichten",
  "abi": [
    {
      "inputs": [],
      "payable": false,
      "stateMutability": "nonpayable",
      "type": "constructor"
    },
    {
      "constant": false,
      "inputs": [],
      "name": "makePayment",
      "outputs": [],
      "payable": true,
      "stateMutability": "payable",
      "type": "function"
    },
    {
      "constant": true,
      "inputs": [],
      "name": "getBalance",
      "outputs": [
        {
          "internalType": "uint256",
          "name": "",
          "type": "uint256"
        }
      ],
      "payable": false,
      "stateMutability": "view",
      "type": "function"
    },
    {
      "constant": false,
      "inputs": [
        {
          "internalType": "address payable",
          "name": "payableAddress",
          "type": "address"
        },
        {
          "internalType": "string",
          "name": "message",
          "type": "string"
        }
      ],
      "name": "addMessage",
      "outputs": [
        {
          "internalType": "bool",
          "name": "",
          "type": "bool"
        }
      ],
      "payable": false,
      "stateMutability": "nonpayable",
      "type": "function"
    },
    {
      "constant": true,
      "inputs": [
        {
          "internalType": "uint256",
          "name": "id",
          "type": "uint256"
        }
      ],
      "name": "getMessage",
      "outputs": [
        {
          "internalType": "string",
          "name": "",
          "type": "string"
        }
      ],
      "payable": false,
      "stateMutability": "view",
      "type": "function"
    },
    {
      "constant": true,
      "inputs": [],
      "name": "getTotalMessages",
      "outputs": [
        {
          "internalType": "uint256",
          "name": "",
          "type": "uint256"
        }
      ],
      "payable": false,
      "stateMutability": "view",
      "type": "function"
    }
  ],
  "bytecode": "0x608060405234801561001057600080fd5b50336000806101000a81548173ffffffffffffffffffffffffffffffffffffffff021916908373ffffffffffffffffffffffffffffffffffffffff1602179055506104c9806100606000396000f3fe60806040526004361061004a5760003560e01c806312065fe01461004f578063147e91081461007a57806386f79edb146100a5578063bc7aa54d14610159578063d8d7970014610259575b600080fd5b34801561005b57600080fd5b50610064610263565b6040518082815260200191505060405180910390f35b34801561008657600080fd5b5061008f61026b565b6040518082815260200191505060405180910390f35b3480156100b157600080fd5b506100de600480360360208110156100c857600080fd5b8101908080359060200190929190505050610278565b6040518080602001828103825283818151815260200191508051906020019080838360005b8381101561011e578082015181840152602081019050610103565b50505050905090810190601f16801561014b5780820380516001836020036101000a031916815260200191505b509250505060405180910390f35b34801561016557600080fd5b5061023f6004803603604081101561017c57600080fd5b81019080803573ffffffffffffffffffffffffffffffffffffffff169060200190929190803590602001906401000000008111156101b957600080fd5b8201836020820111156101cb57600080fd5b803590602001918460018302840111640100000000831117156101ed57600080fd5b91908080601f016020809104026020016040519081016040528093929190818152602001838380828437600081840152601f19601f820116905080830192505050505050509192919290505050610331565b604051808215151515815260200191505060405180910390f35b6102616103ed565b005b600047905090565b6000600180549050905090565b60606001828154811061028757fe5b906000526020600020018054600181600116156101000203166002900480601f0160208091040260200160405190810160405280929190818152602001828054600181600116156101000203166002900480156103255780601f106102fa57610100808354040283529160200191610325565b820191906000526020600020905b81548152906001019060200180831161030857829003601f168201915b50505050509050919050565b600060018290806001815401808255809150509060018203906000526020600020016000909192909190915090805190602001906103709291906103ef565b5050600060046001805490508161038357fe5b0614156103e2578273ffffffffffffffffffffffffffffffffffffffff166108fc67016345785d8a00009081150290604051600060405180830381858888f193505050501580156103d8573d6000803e3d6000fd5b50600190506103e7565b600090505b92915050565b565b828054600181600116156101000203166002900490600052602060002090601f016020900481019282601f1061043057805160ff191683800117855561045e565b8280016001018555821561045e579182015b8281111561045d578251825591602001919060010190610442565b5b50905061046b919061046f565b5090565b61049191905b8082111561048d576000816000905550600101610475565b5090565b9056fea265627a7a72315820f9d8de733e2e185bd60156cf9400beaa3629355834fb78508a4cdbc1462c54e964736f6c63430005100032",
  "source": "// SPDX-License-Identifier: MIT\npragma solidity >=0.5.1 <0.9.0;\n\ncontract Berichten {\n\n    address owner;\n    string[] messages;\n\n    constructor() public {\n        owner = msg.sender;\n    }\n\n    function makePayment() payable public {}\n\n    function getBalance() public view returns (uint256){\n        return address(this).balance;\n    }\n\n    function addMessage(address payable payableAddress, string memory message) public returns (bool) {\n        messages.push(message);\n\n        if(messages.length % 4 == 0){\n            payableAddress.transfer(100000000000000000);\n            return true;\n        }\n        return false;\n    }\n\n    function getMessage(uint id) view public returns (string memory) {\n        return messages[id];\n    }\n\n    function getTotalMessages() view public returns(uint){\n        return messages.length;\n    }\n}",
  "sourcePath": "/Users/pieterleek/Desktop/dapp startproject/Smart Contract/contracts/Berichten.sol",
  "compiler": {
    "name": "solc",
    "version": "0.5.16+commit.9c3226ce.Emscripten.clang"
  },
  "schemaVersion": "3.4.16",
  "updatedAt": "2024-03-12T12:08:07.970Z",
  "networkType": "ethereum",
  "devdoc": {
    "methods": {}
  },
  "userdoc": {
    "methods": {}
  }
}